{
  "_format": "hh-sol-artifact-1",
  "contractName": "PredictionMarket",
  "sourceName": "src/PredictionMarket.sol",
  "abi": [
    {
      "inputs": [
        {
          "internalType": "address",
          "name": "_owner",
          "type": "address"
        }
      ],
      "stateMutability": "nonpayable",
      "type": "constructor"
    },
    {
      "anonymous": false,
      "inputs": [
        {
          "indexed": true,
          "internalType": "bytes32",
          "name": "matchId",
          "type": "bytes32"
        },
        {
          "indexed": false,
          "internalType": "string",
          "name": "homeTeam",
          "type": "string"
        },
        {
          "indexed": false,
          "internalType": "string",
          "name": "awayTeam",
          "type": "string"
        },
        {
          "indexed": false,
          "internalType": "uint64",
          "name": "kickoffTimestamp",
          "type": "uint64"
        }
      ],
      "name": "MatchCreated",
      "type": "event"
    },
    {
      "anonymous": false,
      "inputs": [
        {
          "indexed": true,
          "internalType": "bytes32",
          "name": "matchId",
          "type": "bytes32"
        },
        {
          "indexed": false,
          "internalType": "enum IPredictionMarket.Outcome",
          "name": "result",
          "type": "uint8"
        }
      ],
      "name": "MatchResolved",
      "type": "event"
    },
    {
      "anonymous": false,
      "inputs": [
        {
          "indexed": true,
          "internalType": "bytes32",
          "name": "matchId",
          "type": "bytes32"
        },
        {
          "indexed": true,
          "internalType": "address",
          "name": "predictor",
          "type": "address"
        },
        {
          "indexed": false,
          "internalType": "uint256",
          "name": "points",
          "type": "uint256"
        }
      ],
      "name": "PointsAwarded",
      "type": "event"
    },
    {
      "anonymous": false,
      "inputs": [
        {
          "indexed": true,
          "internalType": "bytes32",
          "name": "matchId",
          "type": "bytes32"
        },
        {
          "indexed": true,
          "internalType": "address",
          "name": "predictor",
          "type": "address"
        },
        {
          "indexed": false,
          "internalType": "enum IPredictionMarket.Outcome",
          "name": "pick",
          "type": "uint8"
        }
      ],
      "name": "PredictionSubmitted",
      "type": "event"
    },
    {
      "inputs": [],
      "name": "CORRECT_PREDICTION_POINTS",
      "outputs": [
        {
          "internalType": "uint256",
          "name": "",
          "type": "uint256"
        }
      ],
      "stateMutability": "view",
      "type": "function"
    },
    {
      "inputs": [
        {
          "internalType": "bytes32",
          "name": "matchId",
          "type": "bytes32"
        },
        {
          "internalType": "string",
          "name": "homeTeam",
          "type": "string"
        },
        {
          "internalType": "string",
          "name": "awayTeam",
          "type": "string"
        },
        {
          "internalType": "uint64",
          "name": "kickoffTimestamp",
          "type": "uint64"
        }
      ],
      "name": "createMatch",
      "outputs": [],
      "stateMutability": "nonpayable",
      "type": "function"
    },
    {
      "inputs": [
        {
          "internalType": "address",
          "name": "predictor",
          "type": "address"
        }
      ],
      "name": "getLeaderboardScore",
      "outputs": [
        {
          "internalType": "uint256",
          "name": "",
          "type": "uint256"
        }
      ],
      "stateMutability": "view",
      "type": "function"
    },
    {
      "inputs": [
        {
          "internalType": "bytes32",
          "name": "matchId",
          "type": "bytes32"
        }
      ],
      "name": "getPredictorsForMatch",
      "outputs": [
        {
          "internalType": "address[]",
          "name": "",
          "type": "address[]"
        }
      ],
      "stateMutability": "view",
      "type": "function"
    },
    {
      "inputs": [
        {
          "internalType": "address",
          "name": "",
          "type": "address"
        }
      ],
      "name": "leaderboard",
      "outputs": [
        {
          "internalType": "uint256",
          "name": "",
          "type": "uint256"
        }
      ],
      "stateMutability": "view",
      "type": "function"
    },
    {
      "inputs": [
        {
          "internalType": "bytes32",
          "name": "",
          "type": "bytes32"
        }
      ],
      "name": "matches",
      "outputs": [
        {
          "internalType": "bytes32",
          "name": "matchId",
          "type": "bytes32"
        },
        {
          "internalType": "string",
          "name": "homeTeam",
          "type": "string"
        },
        {
          "internalType": "string",
          "name": "awayTeam",
          "type": "string"
        },
        {
          "internalType": "uint64",
          "name": "kickoffTimestamp",
          "type": "uint64"
        },
        {
          "internalType": "bool",
          "name": "resolved",
          "type": "bool"
        },
        {
          "internalType": "enum IPredictionMarket.Outcome",
          "name": "result",
          "type": "uint8"
        }
      ],
      "stateMutability": "view",
      "type": "function"
    },
    {
      "inputs": [],
      "name": "owner",
      "outputs": [
        {
          "internalType": "address",
          "name": "",
          "type": "address"
        }
      ],
      "stateMutability": "view",
      "type": "function"
    },
    {
      "inputs": [
        {
          "internalType": "bytes32",
          "name": "",
          "type": "bytes32"
        },
        {
          "internalType": "address",
          "name": "",
          "type": "address"
        }
      ],
      "name": "predictions",
      "outputs": [
        {
          "internalType": "address",
          "name": "predictor",
          "type": "address"
        },
        {
          "internalType": "enum IPredictionMarket.Outcome",
          "name": "pick",
          "type": "uint8"
        },
        {
          "internalType": "uint64",
          "name": "submittedAt",
          "type": "uint64"
        },
        {
          "internalType": "bool",
          "name": "scored",
          "type": "bool"
        }
      ],
      "stateMutability": "view",
      "type": "function"
    },
    {
      "inputs": [
        {
          "internalType": "bytes32",
          "name": "matchId",
          "type": "bytes32"
        },
        {
          "internalType": "enum IPredictionMarket.Outcome",
          "name": "result",
          "type": "uint8"
        }
      ],
      "name": "resolveMatch",
      "outputs": [],
      "stateMutability": "nonpayable",
      "type": "function"
    },
    {
      "inputs": [
        {
          "internalType": "bytes32",
          "name": "matchId",
          "type": "bytes32"
        },
        {
          "internalType": "address",
          "name": "predictor",
          "type": "address"
        }
      ],
      "name": "scorePredictor",
      "outputs": [],
      "stateMutability": "nonpayable",
      "type": "function"
    },
    {
      "inputs": [
        {
          "internalType": "bytes32",
          "name": "matchId",
          "type": "bytes32"
        },
        {
          "internalType": "string",
          "name": "homeTeam",
          "type": "string"
        },
        {
          "internalType": "string",
          "name": "awayTeam",
          "type": "string"
        },
        {
          "internalType": "uint64",
          "name": "kickoffTimestamp",
          "type": "uint64"
        },
        {
          "internalType": "enum IPredictionMarket.Outcome",
          "name": "pick",
          "type": "uint8"
        }
      ],
      "name": "submitPrediction",
      "outputs": [],
      "stateMutability": "nonpayable",
      "type": "function"
    }
  ],
  "bytecode": "0x608060405234801561001057600080fd5b5060405161139e38038061139e83398101604081905261002f9161006c565b6001600160a01b038116156100445780610046565b335b600080546001600160a01b0319166001600160a01b03929092169190911790555061009c565b60006020828403121561007e57600080fd5b81516001600160a01b038116811461009557600080fd5b9392505050565b6112f3806100ab6000396000f3fe608060405234801561001057600080fd5b50600436106100a95760003560e01c80638da5cb5b116100715780638da5cb5b146101385780639fe9ada314610163578063d1d33d2014610188578063e92e4002146101a8578063ef7ba755146101b0578063fe1063bc146101d057600080fd5b806323e26d77146100ae57806333ef9699146100c357806370a04ecb146100ff57806372c7606a146101125780638c39495114610125575b600080fd5b6100c16100bc366004610d3d565b61023c565b005b6100ec6100d1366004610d69565b6001600160a01b031660009081526004602052604090205490565b6040519081526020015b60405180910390f35b6100c161010d366004610df9565b610451565b6100c1610120366004610e93565b610745565b6100c1610133366004610eb6565b61095e565b60005461014b906001600160a01b031681565b6040516001600160a01b0390911681526020016100f6565b610176610171366004610f3e565b610b5e565b6040516100f696959493929190610fd5565b6100ec610196366004610d69565b60046020526000908152604090205481565b6100ec600a81565b6101c36101be366004610f3e565b610cb5565b6040516100f69190611032565b61022c6101de366004610d3d565b60026020908152600092835260408084209091529082529020546001600160a01b0381169060ff600160a01b82048116916001600160401b03600160a81b82041691600160e81b9091041684565b6040516100f6949392919061107f565b60008281526001602052604090206003810154600160401b900460ff166102aa5760405162461bcd60e51b815260206004820152601e60248201527f50726564696374696f6e4d61726b65743a206e6f74207265736f6c766564000060448201526064015b60405180910390fd5b60008381526002602090815260408083206001600160a01b0386168452909152812080549091600160a81b9091046001600160401b0316900361032f5760405162461bcd60e51b815260206004820152601f60248201527f50726564696374696f6e4d61726b65743a206e6f2070726564696374696f6e0060448201526064016102a1565b8054600160e81b900460ff16156103885760405162461bcd60e51b815260206004820181905260248201527f50726564696374696f6e4d61726b65743a20616c72656164792073636f72656460448201526064016102a1565b805460ff60e81b1916600160e81b178155600380830154600160481b900460ff16908111156103b9576103b9610f9d565b8154600160a01b900460ff1660038111156103d6576103d6610f9d565b0361044b576001600160a01b03831660009081526004602052604081208054600a92906104049084906110bc565b9091555050604051600a81526001600160a01b0384169085907f496ce574a2a3bd0ca0ada9e11654dda60d48fb484f6b365e0a4cbd98ded3425e9060200160405180910390a35b50505050565b6000878152600160205260408120600301546001600160401b031690036104805761048087878787878761095e565b600087815260016020526040902060038101546001600160401b031642106104f65760405162461bcd60e51b8152602060048201526024808201527f50726564696374696f6e4d61726b65743a206b69636b6f6666206861732070616044820152631cdcd95960e21b60648201526084016102a1565b600082600381111561050a5761050a610f9d565b036105575760405162461bcd60e51b815260206004820152601e60248201527f50726564696374696f6e4d61726b65743a20696e76616c6964207069636b000060448201526064016102a1565b6000888152600260209081526040808320338452909152902054600160a81b90046001600160401b0316156105da5760405162461bcd60e51b815260206004820152602360248201527f50726564696374696f6e4d61726b65743a20616c7265616479207072656469636044820152621d195960ea1b60648201526084016102a1565b6040518060800160405280336001600160a01b0316815260200183600381111561060657610606610f9d565b81526001600160401b034216602080830191909152600060409283018190528b815260028252828120338252825291909120825181546001600160a01b03919091166001600160a01b031982168117835592840151919283916001600160a81b03191617600160a01b83600381111561068157610681610f9d565b021790555060408281015182546060909401511515600160e81b0260ff60e81b196001600160401b03909216600160a81b029190911668ffffffffffffffffff60a81b1990941693909317929092179055600089815260036020908152828220805460018101825590835291200180546001600160a01b03191633908117909155905189907f911299f97afff5bd8c948b17f859e13963e964b6b451a4aca6f0a99fa30ffcb8906107339086906110e3565b60405180910390a35050505050505050565b6000546001600160a01b0316331461079f5760405162461bcd60e51b815260206004820152601b60248201527f50726564696374696f6e4d61726b65743a206e6f74206f776e6572000000000060448201526064016102a1565b6000828152600160205260408120600381015490916001600160401b03909116900361080d5760405162461bcd60e51b815260206004820152601f60248201527f50726564696374696f6e4d61726b65743a20756e6b6e6f776e206d617463680060448201526064016102a1565b6003810154600160401b900460ff16156108745760405162461bcd60e51b815260206004820152602260248201527f50726564696374696f6e4d61726b65743a20616c7265616479207265736f6c76604482015261195960f21b60648201526084016102a1565b600082600381111561088857610888610f9d565b036108d55760405162461bcd60e51b815260206004820181905260248201527f50726564696374696f6e4d61726b65743a20696e76616c696420726573756c7460448201526064016102a1565b60038181018054600160401b68ff000000000000000019821681178355859369ffff0000000000000000199092161790600160481b90849081111561091c5761091c610f9d565b0217905550827fea8ea0d25c20e9a805057bc82c595929a741d114709f74e467893892d14ba66d8360405161095191906110e3565b60405180910390a2505050565b6000868152600160205260409020600301546001600160401b0316156109c65760405162461bcd60e51b815260206004820152601e60248201527f50726564696374696f6e4d61726b65743a206d6174636820657869737473000060448201526064016102a1565b6040518060c0016040528087815260200186868080601f016020809104026020016040519081016040528093929190818152602001838380828437600092019190915250505090825250604080516020601f87018190048102820181019092528581529181019190869086908190840183828082843760009201829052509385525050506001600160401b0384166020830152604082018190526060909101526000878152600160208181526040909220835181559183015190820190610a8d9082611192565b5060408201516002820190610aa29082611192565b5060608201516003808301805460808601511515600160401b0268ffffffffffffffffff199091166001600160401b03909416939093179290921780835560a0850151929169ff0000000000000000001990911690600160481b908490811115610b0e57610b0e610f9d565b0217905550905050857f5a5a8f5ae9b89a0acf2c06c95d702fd5561642f6ab6e033608c990894d38fd4b8686868686604051610b4e95949392919061127a565b60405180910390a2505050505050565b600160208190526000918252604090912080549181018054610b7f90611107565b80601f0160208091040260200160405190810160405280929190818152602001828054610bab90611107565b8015610bf85780601f10610bcd57610100808354040283529160200191610bf8565b820191906000526020600020905b815481529060010190602001808311610bdb57829003601f168201915b505050505090806002018054610c0d90611107565b80601f0160208091040260200160405190810160405280929190818152602001828054610c3990611107565b8015610c865780601f10610c5b57610100808354040283529160200191610c86565b820191906000526020600020905b815481529060010190602001808311610c6957829003601f168201915b505050600390930154919250506001600160401b0381169060ff600160401b8204811691600160481b90041686565b600081815260036020908152604091829020805483518184028101840190945280845260609392830182828015610d1557602002820191906000526020600020905b81546001600160a01b03168152600190910190602001808311610cf7575b50505050509050919050565b80356001600160a01b0381168114610d3857600080fd5b919050565b60008060408385031215610d5057600080fd5b82359150610d6060208401610d21565b90509250929050565b600060208284031215610d7b57600080fd5b610d8482610d21565b9392505050565b60008083601f840112610d9d57600080fd5b5081356001600160401b03811115610db457600080fd5b602083019150836020828501011115610dcc57600080fd5b9250929050565b80356001600160401b0381168114610d3857600080fd5b803560048110610d3857600080fd5b600080600080600080600060a0888a031215610e1457600080fd5b8735965060208801356001600160401b0380821115610e3257600080fd5b610e3e8b838c01610d8b565b909850965060408a0135915080821115610e5757600080fd5b50610e648a828b01610d8b565b9095509350610e77905060608901610dd3565b9150610e8560808901610dea565b905092959891949750929550565b60008060408385031215610ea657600080fd5b82359150610d6060208401610dea565b60008060008060008060808789031215610ecf57600080fd5b8635955060208701356001600160401b0380821115610eed57600080fd5b610ef98a838b01610d8b565b90975095506040890135915080821115610f1257600080fd5b50610f1f89828a01610d8b565b9094509250610f32905060608801610dd3565b90509295509295509295565b600060208284031215610f5057600080fd5b5035919050565b6000815180845260005b81811015610f7d57602081850181015186830182015201610f61565b506000602082860101526020601f19601f83011685010191505092915050565b634e487b7160e01b600052602160045260246000fd5b60048110610fd157634e487b7160e01b600052602160045260246000fd5b9052565b86815260c060208201526000610fee60c0830188610f57565b82810360408401526110008188610f57565b9150506001600160401b0385166060830152831515608083015261102760a0830184610fb3565b979650505050505050565b6020808252825182820181905260009190848201906040850190845b818110156110735783516001600160a01b03168352928401929184019160010161104e565b50909695505050505050565b6001600160a01b03851681526080810161109c6020830186610fb3565b6001600160401b0384166040830152821515606083015295945050505050565b808201808211156110dd57634e487b7160e01b600052601160045260246000fd5b92915050565b602081016110dd8284610fb3565b634e487b7160e01b600052604160045260246000fd5b600181811c9082168061111b57607f821691505b60208210810361113b57634e487b7160e01b600052602260045260246000fd5b50919050565b601f82111561118d576000816000526020600020601f850160051c8101602086101561116a5750805b601f850160051c820191505b8181101561118957828155600101611176565b5050505b505050565b81516001600160401b038111156111ab576111ab6110f1565b6111bf816111b98454611107565b84611141565b602080601f8311600181146111f457600084156111dc5750858301515b600019600386901b1c1916600185901b178555611189565b600085815260208120601f198616915b8281101561122357888601518255948401946001909101908401611204565b50858210156112415787850151600019600388901b60f8161c191681555b5050505050600190811b01905550565b81835281816020850137506000828201602090810191909152601f909101601f19169091010190565b60608152600061128e606083018789611251565b82810360208401526112a1818688611251565b9150506001600160401b0383166040830152969550505050505056fea2646970667358221220e25a0342a2d4b12a028ae0de406c8b2f56f77c855cd9bb5c0dfc258df5619b9364736f6c63430008180033",
  "linkReferences": {},
  "deployedLinkReferences": {}
}